:100000009CC00000B5C00000B3C00000B1C000003B
:10001000AFC00000ADC00000ABC00000A9C0000030
:10002000A7C00000A5C00000A3C0000001C50000DB
:100030009FC000009DC000009BC0000099C0000050
:1000400097C0000095C0000093C0000091C0000060
:100050008FC000008DC000008BC0000091C1000067
:1000600087C0000085C0000083C0000081C0000080
:100070007FC00000260348006F0075007300740005
:100080006F006E0020004D006900640069002000D0
:1000900043006C006F0063006B00000020036800E9
:1000A00069006400750069006E006F002000700038
:1000B00072006F006A0065006300740000000403B2
:1000C000090409026500020100C0320904000000B1
:1000D00001010000092401000109000101090401D6
:1000E0000002010300000724010001410006240270
:1000F0000101000624020202000924030103010297
:100100000100092403020401010100090502024063
:1001100000050000052501010109058102400005D7
:10012000000005250101031201100100000008EB89
:100130000348200100010200010011241FBECFEF7F
:10014000D2E0DEBFCDBF11E0A0E0B1E0E0E6FEE02E
:1001500002C005900D92A230B107D9F721E0A2E0CC
:10016000B1E001C01D92AF31B207E1F7C8D076C649
:1001700047CF84B7877F84BF88E10FB6F894809318
:100180006000109260000FBE8FE190E09093CD0070
:100190008093CC0086E08093CA001092C800E9ECFE
:1001A000F0E088E18083539A5A9A84E085BD1082FA
:1001B00088E98083469A3E9A90E080E80FB6F894EA
:1001C00080936100909361000FBE8AB180638AB909
:1001D0008BB180638BB91DC48BB180638F7D8BB96C
:1001E00008958BB180638F7E8BB90895CF9342E3DE
:1001F00061E881E04ED3C82F42E360E882E049D352
:10020000882321F0CC2311F080E201C080E19BB172
:100210008095906389238BB9CF91089580911601C1
:10022000843041F581E08093E9008091E80080FF0F
:1002300021C080910A018823E9F010920A0140E070
:1002400050E064E070E086E091E0D6D110920601C3
:100250001092070110920801109209018091E800A4
:100260008E778093E8005D9888E893E1909305018C
:10027000809304010895CF93DF9300D000D0CDB7D1
:10028000DEB780911601843099F582E08093E90011
:100290008091E80082FF2CC040E050E064E070E014
:1002A000CE010196F3D18A819091C80095FFFCCFD1
:1002B0008093CE008B819091C80095FFFCCF8093F6
:1002C000CE008C819091C80095FFFCCF8093CE002A
:1002D0005C9888E893E190930301809302018091F8
:1002E000F200811105C08091E8008B778093E800CF
:1002F0000F900F900F900F90DF91CF91089539DFFD
:10030000789478948091040190910501009731F0E0
:100310000197909305018093040101C05D9A80913B
:10032000020190910301009731F00197909303012E
:100330008093020101C05C9A9EDF70DF75D5E2CF29
:1003400087FF0CC09CE0980F923040F0982F9B7F65
:10035000993F21F0803F18F4807F089580E0089550
:10036000982F9F7E282F2F7C203839F0803E29F04F
:1003700081E0903C19F080E001C081E08170089537
:100380001F920F920FB60F9211242F933F934F930A
:100390005F936F937F938F939F93AF93BF93CF930D
:1003A000DF93EF93FF9380911601843009F0DFC053
:1003B000C091CE0040910D01411178C0C0930F0152
:1003C000D0910C018D2FBCDFCBDF882349F0C7FD16
:1003D00007C0D0930F01C093100181E080930D01FD
:1003E000C0910F018C2FACDF813F91F188F4803BED
:1003F00089F138F4803971F1803A61F1803869F51A
:1004000029C0803D29F1803E29F1803C31F520C092
:10041000883F69F030F4833FD9F0E0F0863F39F04F
:100420001CC08A3FD0F08D3F10F08E3FB0F08FE0BF
:1004300080930601C09307011092080110920901F0
:1004400081E080930A0110920D0110920B018FC080
:1004500092E001C093E090930B0190910D016091A7
:100460000B01492F50E0262F30E02150310942176F
:100470005307C4F082958F7080930601C0930701E3
:100480008091100180930801633029F4809111015B
:100490008093090102C01092090110920D0110927F
:1004A0000B011BC09F5F90930D0161C0C7FF19C076
:1004B000CD3F28F4CA3F28F4C83F99F402C0CE3F8C
:1004C00080F08C2F3DDF82958F7080930601C09362
:1004D0000701109208011092090181E080930A013E
:1004E00046C0242F30E0F901E15FFE4FC083D09178
:1004F0000B018D2F90E0019728173907ACF1C091BF
:100500000F018C2F1DDF982F92959F7090930601FD
:10051000C09307019091100190930801D33029F402
:10052000909111019093090102C01092090110925B
:100530000D0110920B0191E090930A01803B71F044
:1005400038F4803959F0803A49F0803851F406C0C7
:10055000803D21F0803E11F0803C19F4C0930C01E5
:1005600006C010920C0103C04F5F40930D01FF9134
:10057000EF91DF91CF91BF91AF919F918F917F913B
:100580006F915F914F913F912F910F900FBE0F9000
:100590001F901895292F33272230310559F0233029
:1005A000310569F021303105F9F482E190E027E26C
:1005B00031E01EC085E690E022EC30E019C09927BA
:1005C0008130910541F08230910541F0892B61F431
:1005D000EEEBF0E005C0ECE9F0E002C0E4E7F0E0AB
:1005E000849190E09F0104C080E090E020E030E042
:1005F000FA01318320830895CF92DF92EF92FF9228
:100600000F931F93CF93DF93EC018B017A0195D168
:10061000811133C0E114F10439F0F7018081918137
:10062000081B190BC80FD91FC12CD12C011511059E
:1006300019F18091E80085FD16C08091E8008E7761
:100640008093E800F1D3E114F10449F0F7018081CF
:100650009181C80ED91ED182C08285E00EC06DD1B5
:10066000882321F30AC089918093F1000150110978
:10067000FFEFCF1ADF0ADACF80E0DF91CF911F9131
:100680000F91FF90EF90DF90CF900895CF92DF927F
:10069000EF92FF920F931F93CF93DF93EC018B01A7
:1006A0007A014BD1811133C0E114F10439F0F70123
:1006B00080819181081B190BC80FD91FC12CD12C27
:1006C0000115110519F18091E80085FD16C0809192
:1006D000E8008B778093E800A7D3E114F10449F098
:1006E000F70180819181C80ED91ED182C08285E038
:1006F0000EC023D1882321F30AC08091F100899391
:1007000001501109FFEFCF1ADF0ADACF80E0DF9145
:10071000CF911F910F91FF90EF90DF90CF900895B0
:1007200020911D0130911E012617370748F06115F1
:10073000710539F42091E8002E772093E80001C07C
:10074000B901FC0120E06115710561F1809116018C
:100750008823D9F18530D9F18091E80083FD39C033
:100760008091E80082FD2BC08091E80080FFEBCFF4
:100770008091F20090E06115710551F0883091058B
:1007800038F421912093F100615071090196F3CF63
:1007900021E0089709F020E08091E8008E778093AF
:1007A000E800D1CF2111D2CF0AC080911601882351
:1007B00061F0853061F08091E80083FD0AC080918E
:1007C000E80082FFF2CF80E0089582E0089583E0A0
:1007D000089581E0089520911D0130911E01261792
:1007E000370748F06115710539F42091E8002E773C
:1007F0002093E80001C0B901FC0120E061157105FA
:1008000079F180911601882309F43DC0853009F4FF
:100810003CC08091E80083FD3AC08091E80082FDF1
:100820002CC08091E80080FFE9CF8091F20090E039
:100830006115710559F08830910540F42491209399
:10084000F1003196615071090196F2CF21E00897CD
:1008500009F020E08091E8008E778093E800CECF09
:100860002111CFCF0AC080911601882361F0853015
:1008700061F08091E80083FD0AC08091E80082FF6A
:10088000F2CF80E0089582E0089583E0089581E04A
:100890000895982F953068F59093E900981739F0EE
:1008A0007091EC002091ED005091F00003C0242FD6
:1008B000762F50E021FD02C09F5FECCF3091EB001E
:1008C0003E7F3093EB003091ED003D7F3093ED00A3
:1008D0003091EB0031603093EB007093EC0020938B
:1008E000ED005093F0002091EE0027FDE5CF80E071
:1008F00008958F708093E90081E008958091170139
:1009000087FF11C08091E80082FD05C0809116012B
:100910008111F8CF11C08091E8008B770BC08091D6
:100920001601882349F08091E80080FFF8CF80917C
:10093000E8008E778093E80008952091E4003091DC
:10094000E50095E64091EC00842F817040FF23C0C4
:100950008091E80080FD1DC080911601882399F0E8
:10096000853099F08091EB0085FD11C04091E40045
:100970005091E5002417350729F3915011F09A01A1
:10098000E1CF84E0089582E0089583E0089581E056
:10099000089580E008954091E80042FFDDCF08957A
:1009A00041D043D08091D8008F778093D800809138
:1009B000D80080688093D8008091D8008F7D809384
:1009C000D80084E089BD86E089BD09B400FEFDCF72
:1009D000109216011092120110921401109213013C
:1009E00042E060E080E055DF8091E1008E7F8093FF
:1009F000E1008091E20081608093E2008091E2005A
:100A000088608093E2008091E0008E7F8093E00018
:100A10000895E3E6F0E080818E7F808381E080931B
:100A20001501BECF1092E20008951092E1000895E2
:100A30001F920F920FB60F9211242F933F934F9353
:100A40005F936F937F938F939F93AF93BF93EF9336
:100A5000FF938091E10082FF0AC08091E20082FF53
:100A600006C08091E1008B7F8093E100DCD1809112
:100A7000E10080FF17C08091E20080FF13C08091E9
:100A8000E2008E7F8093E2008091E200806180939B
:100A9000E2008091D80080628093D80019BC109247
:100AA00016019FDB8091E10084FF2FC08091E2005E
:100AB00084FF2BC084E089BD86E089BD09B400FEB7
:100AC000FDCF8091D8008F7D8093D8008091E10088
:100AD0008F7E8093E1008091E2008F7E8093E20020
:100AE0008091E20081608093E2008091120188236E
:100AF00011F084E007C08091E30087FD02C081E02F
:100B000001C083E08093160167DB8091E10083FFE1
:100B100022C08091E20083FF1EC08091E100877FA8
:100B20008093E10082E0809316011092120180917F
:100B3000E1008E7F8093E1008091E2008E7F8093C0
:100B4000E2008091E20080618093E20042E060E098
:100B500080E09FDE68D1FF91EF91BF91AF919F91AF
:100B60008F917F916F915F914F913F912F910F9056
:100B70000FBE0F901F9018951F93CF93DF93CDB7A3
:100B8000DEB7AA970FB6F894DEBF0FBECDBFE7E180
:100B9000F1E08091F100819321E0EF31F207C9F794
:100BA00042D18091E80083FF26C180911701909186
:100BB0001801953009F478C030F4913081F168F073
:100BC000933069F118C1983009F4E2C0993009F402
:100BD000F1C0963009F00FC189C0803881F08238A9
:100BE00009F009C180911B018F708093E900809109
:100BF000EB0085FB882780F91092E90006C0809100
:100C0000130190911401911182609091E800977FF7
:100C10009093E8008093F1001092F100C4C0282F57
:100C20002D7F09F0E8C0882319F0823061F0E3C01D
:100C300080911901813009F0DEC0933009F080E025
:100C4000809314012BC080911901811127C08091DC
:100C50001B018F7009F4CFC08093E9002091EB0055
:100C600020FF1CC0933021F48091EB00806214C0FF
:100C70009091EB0090619093EB0021E030E0A901AE
:100C800002C0440F551F8A95E2F74093EA00109284
:100C9000EA008091EB0088608093EB001092E900FD
:100CA0008091E800877F82C08111A5C01091190151
:100CB0001F778091E3008078812B8093E3008091FF
:100CC000E800877F8093E80019DE8091E80080FFCC
:100CD000FCCF8091E30080688093E300111102C093
:100CE00082E001C083E08093160185C08058823085
:100CF00008F081C08091190190911A018C3D53E058
:100D0000950771F583E08A838AE289834FB7F89467
:100D1000DE01139620E03EE051E2E32FF0E0509335
:100D20005700E49120FF03C0E295EF703F5FEF7042
:100D30008E2F90E0EA3010F0C79601C0C0968D93D8
:100D40009D932F5F243149F74FBF8091E800877F43
:100D50008093E8006AE270E0CE010196E1DC12C007
:100D6000AE014F5F5F4F60911B0114DCBC01892B0A
:100D700009F441C09091E800977F9093E800898141
:100D80009A8129DD8091E8008B778093E80033C059
:100D9000803889F58091E800877F8093E800809112
:100DA00012018093F1008091E8008E778093E80033
:100DB000A5DD21C081111FC08091190190911A01F8
:100DC00099270297C4F48091E800877F8093E80018
:100DD000809119018093120191DD8091120181119E
:100DE00006C08091E30087FD02C081E001C084E07D
:100DF00080931601FBD98091E80083FF0AC080919F
:100E0000E800877F8093E8008091EB008062809308
:100E1000EB00AA960FB6F894DEBF0FBECDBFDF91F0
:100E2000CF911F9108950895CF9380911601882343
:100E300099F0C091E900CF709091EC00892F8170FA
:100E400090FD80E8C82B1092E9008091E80083FDB6
:100E500093DECF70C093E900CF910895F894FFCF4F
:020E600001008F
:00000001FF
